:020000040800F2
:1000000000000120090300085903000859030008F3
:1000100059030008590300085903000800000000B4
:10002000000000000000000000000000590300086C
:100030005903000800000000590300085903000894
:100040005903000859030008590300085903000820
:100050005903000859030008590300085903000810
:100060005903000859030008590300085903000800
:1000700059030008590300085903000859030008F0
:1000800059030008590300085903000859030008E0
:1000900059030008590300085903000859030008D0
:1000A00059030008590300085903000859030008C0
:1000B00059030008590300085903000859030008B0
:1000C00059030008590300085903000859030008A0
:1000D0005903000859030008590300085903000890
:1000E0005903000859030008590300085903000880
:1000F0005903000859030008590300085903000870
:100100005903000800000000000000005903000827
:10011000590300085903000859030008590300084F
:10012000590300085903000859030008590300083F
:1001300059030008590300080000000000000000F7
:100140005903000859030008590300080000000083
:10015000000000000000000000000000000000009F
:1001600059030008590300085903000859030008FF
:1001700059030008590300085903000859030008EF
:1001800059030008590300080000000000000000A7
:040190005903000807
:100194000348044B834202D0034B03B11847704712
:1001A4003004002030040020000000000548064B05
:1001B4001B1AD90F01EBA301491002D0034B03B161
:1001C400184770473004002030040020000000006D
:1001D40010B5064C237843B9FFF7DAFF044B13B18B
:1001E4000448AFF300800123237010BD30040020C5
:1001F400000000007003000808B5044B1BB104495B
:100204000448AFF30080BDE80840CFE700000000D9
:100214003404002070030008002301461A461846DF
:1002240000F03AB838B5084B084D5B1B9C1007D05A
:10023400043B1D44013C55F804399847002CF9D17E
:10024400BDE8384000F098B898030008940300080B
:1002540070B50D4E0D4D761BB61006D0002455F822
:10026400043B01349847A642F9D1094E094D761B47
:1002740000F07CF8B61006D0002455F8043B013495
:100284009847A642F9D170BD8C0300088C0300087E
:10029400940300088C03000870B4184C2568D5F842
:1002A40048411CB365681F2D25DC38B9AB1C0135EA
:1002B400656044F82310002070BC704704EB850C83
:1002C4000228CCF88820D4F888614FF0010202FAA1
:1002D40005F246EA0206C4F88861CCF80831E5D193
:1002E400D4F88C311343C4F88C31DFE705F5A674D8
:1002F400C5F84841D6E74FF0FF30DDE78803000832
:10030400FEE77047DFF834D0FFF7FBFF0C480D49D8
:100314000D4A002302E0D458C4500433C4188C425C
:10032400F9D30A4A0A4C002301E013600432A242C2
:10033400FBD3FFF78DFFFFF7E3FFFEE7000001208B
:10034400000000203004002098030008300400203E
:100354004C040020FEE70000024B13B10248FFF7F3
:100364005BBF70470000000029020008F8B500BF19
:10037400F8BC08BC9E467047F8B500BFF8BC08BC82
:040384009E467047DA
:040388000800002049
:08038C005D030008FD010008FB
:04039400D501000887
:10039800080000200000000000000000F402002017
:1003A8005C030020C40300200000000000000000DF
:1003B8000000000000000000000000000000000035
:1003C8000000000000000000000000000000000025
:1003D8000000000000000000000000000000000015
:1003E8000000000000000000000000000000000005
:1003F80000000000000000000000000000000000F5
:1004080000000000000000000000000000000000E4
:1004180000000000000000000000000000000000D4
:1004280000000000000000000000000000000000C4
:1004380000000000000000000000000000000000B4
:1004480001000000000000000E33CDAB34126DE651
:10045800ECDE05000B0000000000000000000000BA
:100468000000000000000000000000000000000084
:100478000000000000000000000000000000000074
:100488000000000000000000000000000000000064
:100498000000000000000000000000000000000054
:0400000508000309E3
:00000001FF
