:020000040800F2
:10000000000001201D0E0008010E0008030E00086C
:10001000050E0008070E0008090E00080000000089
:100020000000000000000000000000000B0E0008AF
:100030000D0E0008000000000F0E0008110E000851
:100040006D0E00086D0E00086D0E00086D0E0008A4
:100050006D0E00086D0E00086D0E00086D0E000894
:100060006D0E00086D0E00086D0E00086D0E000884
:100070006D0E00086D0E00086D0E00086D0E000874
:100080006D0E00086D0E00086D0E00086D0E000864
:100090006D0E00086D0E00086D0E00086D0E000854
:1000A0006D0E00086D0E00086D0E00086D0E000844
:1000B0006D0E00086D0E00086D0E00086D0E000834
:1000C0006D0E00086D0E00086D0E00086D0E000824
:1000D0006D0E00086D0E00086D0E00086D0E000814
:1000E0006D0E00086D0E00086D0E00086D0E000804
:1000F0006D0E00086D0E00086D0E00086D0E0008F4
:100100006D0E000800000000000000006D0E0008E9
:100110006D0E00086D0E00086D0E00086D0E0008D3
:100120006D0E00086D0E00086D0E00086D0E0008C3
:100130006D0E00086D0E00080000000000000000B9
:100140006D0E00086D0E00086D0E00080000000026
:10015000000000000000000000000000000000009F
:100160006D0E00086D0E00086D0E00086D0E000883
:100170006D0E00086D0E00086D0E00086D0E000873
:100180006D0E00086D0E0008000000000000000069
:040190006D0E0008E8
:100194000348044B834202D0034B03B11847704712
:1001A4003C0400203C040020000000000548064BED
:1001B4001B1AD90F01EBA301491002D0034B03B161
:1001C400184770473C0400203C0400200000000055
:1001D40010B5064C237843B9FFF7DAFF044B13B18B
:1001E4000448AFF300800123237010BD3C040020B9
:1001F40000000000840E000808B5044B1BB104493C
:100204000448AFF30080BDE80840CFE700000000D9
:1002140040040020840E0008002301461A461846B4
:1002240000F08CB838B5084B084D5B1B9C1007D008
:10023400043B1D44013C55F804399847002CF9D17E
:10024400BDE8384000F022BEDC0E0008D80E0008DD
:1002540070B50D4E0D4D761BB61006D0002455F822
:10026400043B01349847A642F9D1094E094D761B47
:1002740000F006FEB61006D0002455F8043B013405
:100284009847A642F9D170BDD00E0008D00E0008E0
:10029400D80E0008D00E0008830730B548D0541E8D
:1002A400002A3FD0CAB2034601E0013C3AD303F826
:1002B400012B9D07F9D1032C2DD9CDB245EA052593
:1002C4000F2C45EA054536D9A4F1100222F00F0C93
:1002D40003F1200EE6444FEA121C03F1100242E936
:1002E400045542E9025510327245F8D10CF101026D
:1002F40014F00C0F03EB021204F00F0C13D0ACF14A
:10030400040323F003030433134442F8045B9342CD
:10031400FBD10CF003042CB1CAB21C4403F8012B2A
:100324009C42FBD130BD64461346002CF4D1F9E75E
:1003340003461446BFE71A46A446E0E770B4184CD7
:100344002568D5F848411CB365681F2D25DC38B9EC
:10035400AB1C0135656044F82310002070BC704765
:1003640004EB850C0228CCF88820D4F888614FF07F
:10037400010202FA05F246EA0206C4F88861CCF8E2
:100384000831E5D1D4F88C311343C4F88C31DFE75C
:1003940005F5A674C5F84841D6E74FF0FF30DDE710
:1003A4009C0E000810B504460E4B1A784FF47A736D
:1003B400B3FBF2F30C4A1068B0FBF3F000F092F8D0
:1003C40068B90F2C01D901200AE0002221464FF020
:1003D400FF3000F077F8054B1C60002000E001209E
:1003E40010BD00BF30040020380400203404002075
:1003F40008B5074A136843F010031360032000F0A4
:100404004FF80F20FFF7CEFF00F0E0FC002008BDFE
:1004140000200240034A1168034B1B780B4413600D
:10042400704700BF5804002030040020014B1868B6
:10043400704700BF58040020002808DB0901C9B236
:1004440000F1604000F5614080F80013704700F04F
:100454000F000901C9B2014B1954704714ED00E0B3
:1004640000B500F00700C0F1070CBCF1040F28BF71
:100474004FF0040C031D062B0FD9C31E4FF0FF3E93
:100484000EFA0CF021EA000199400EFA03FE22EA6A
:100494000E0241EA02005DF804FB0023EEE70000CF
:1004A400074AD36823F4E0631B041B0C000200F426
:1004B400E060034343F0BF6343F40033D360704709
:1004C40000ED00E010B50446054BD868C0F30220E7
:1004D400FFF7C6FF01462046FFF7AEFF10BD00BF81
:1004E40000ED00E00138B0F1807F0BD24FF0E02343
:1004F4005861054AF02182F82310002098610722F0
:100504001A6170470120704700ED00E0002800F0F8
:10051400088370B582B00446036813F0010F3DD020
:10052400B24B5B6803F00C03042B20D0AF4B5B6829
:1005340003F00C03082B13D06368B3F5803F6AD033
:10054400002B40F08D8003F1804303F504331A68D7
:1005540022F480321A601A6822F480221A605FE062
:10056400A24B5B6803F4C033B3F5803FE4D14FF48E
:10057400003393FAA3F39D4B19684FF4003393FAB5
:10058400A3F3B3FA83F303F01F03012202FA03F384
:100594000B4203D06368002B00F0C582236813F07C
:1005A400020F00F0BF80914B5B6813F00C0F00F05A
:1005B40097808E4B5B6803F00C03082B00F0888057
:1005C400E368002B00F0EB80012292FAA2F3B3FA65
:1005D40083F303F1845303F584139B001A60FFF73C
:1005E40025FF0546022393FAA3F3804B19680223DF
:1005F40093FAA3F3B3FA83F303F01F03012202FA7D
:1006040003F30B4240F0BD80FFF710FF401B0228AC
:10061400E8D9032090E2754A136843F480331360E9
:100624006368002B36D0FFF701FF05464FF4003313
:1006340093FAA3F36D4B19684FF4003393FAA3F3C1
:10064400B3FA83F303F01F03012202FA03F30B420C
:10065400A4D1FFF7EBFE401B6428E7D903206BE22B
:10066400B3F5A02F09D0614B1A6822F480321A60C6
:100674001A6822F480221A60D2E703F18043A3F5BA
:100684003C331A6842F480221A601A6842F48032B9
:100694001A60C5E7FFF7CAFE05464FF4003393FA24
:1006A400A3F3524B19684FF4003393FAA3F3B3FA4C
:1006B40083F303F01F03012202FA03F30B423FF416
:1006C4006DAFFFF7B3FE401B6428E6D9032033E285
:1006D400464B5B6803F4C033B3F5004F7FF470AF4F
:1006E400022393FAA3F3414B1968022393FAA3F369
:1006F400B3FA83F303F01F03012202FA03F30B425C
:1007040003D0E368934240F010823848036823F032
:10071400F8032169F82292FAA2F2B2FA82F2914025
:100724000B430360236813F0080F00F08B806369A8
:10073400002B5FD0012191FAA1F2B2FA82F22C4B84
:1007440013449B001960FFF771FE0546022393FAD8
:10075400A3F293FAA3F293FAA3F2244A516A93FA06
:10076400A3F3B3FA83F303F01F03012202FA03F3A2
:100774000B4267D1FFF75AFE401B0228E6D903203B
:10078400DAE11A48036823F0F8032169F82292FA9F
:10079400A2F2B2FA82F291400B430360C2E7012352
:1007A40093FAA3F3B3FA83F303F1845303F58413A5
:1007B4009B0000221A60FFF739FE0546022393FAD4
:1007C400A3F30A4B1968022393FAA3F3B3FA83F34E
:1007D40003F01F03012202FA03F30B42A2D0FFF736
:1007E40025FE401B0228E9D90320A5E100100240A0
:1007F40020819010012292FAA2F2B2FA82F29C4B6A
:1008040013449B0000221A60FFF710FE05460223E2
:1008140093FAA3F293FAA3F293FAA3F2954A516AD4
:1008240093FAA3F3B3FA83F303F01F03012202FA4A
:1008340003F30B4206D0FFF7F9FD401B0228E6D96B
:10084400032079E1236813F0040F00F0A980894B99
:10085400DB6913F0805F20D1864BDA6942F0805265
:10086400DA61DB6903F080530193019B0125824B1C
:100874001B6813F4807F12D0A368012B23D073BBB1
:1008840003F1804303F504331A6A22F001021A6269
:100894001A6A22F004021A621AE00025E7E7764A8F
:1008A400136843F480731360FFF7C0FD0646724B70
:1008B4001B6813F4807FDFD1FFF7B8FD801B642829
:1008C400F5D9032038E16B4A136A43F0010313623C
:1008D400A368002B3CD0FFF7A9FD06462EE0052BAC
:1008E40009D0644B1A6A22F001021A621A6A22F0D1
:1008F40004021A62ECE75F4B1A6A42F004021A62BD
:100904001A6A42F001021A62E2E7022393FAA3F39D
:10091400584B596A022393FAA3F3B3FA83F303F00F
:100924001F03012202FA03F3194238D1FFF77EFDB7
:10093400801B41F28833984200F2F980022393FA33
:10094400A3F293FAA3F3002BDFD04A4B196AE1E731
:10095400FFF76CFD064618E0022393FAA3F3454B18
:10096400596A022393FAA3F3B3FA83F303F01F0340
:10097400012202FA03F3194211D0FFF757FD801B3D
:1009840041F28833984200F2D480022393FAA3F20E
:1009940093FAA3F3002BDFD0364B196AE1E7B5BB1A
:1009A400A369002B00F0C780324A526802F00C029F
:1009B400082A00F0A080022B2FD04FF0807393FA06
:1009C400A3F3B3FA83F303F1845303F584139B0075
:1009D40000221A60FFF72AFD04464FF0007393FAD1
:1009E400A3F3244B19684FF0007393FAA3F3B3FAFB
:1009F40083F303F01F03012202FA03F3194278D0B0
:100A0400FFF714FD001B0228E7D9032094E0194ADC
:100A1400D36923F08053D361C2E74FF0807393FA14
:100A2400A3F3B3FA83F303F1845303F584139B0014
:100A340000221A60FFF7FAFC05464FF0007393FAA0
:100A4400A3F30C4B19684FF0007393FAA3F3B3FAB2
:100A540083F303F01F03012202FA03F319420DD0BA
:100A6400FFF7E4FC401B0228E7D9032064E000BF41
:100A7400208190100010024000700040334AD36A75
:100A840023F00F03616A0B43D362536823F4761394
:100A9400216AE06901430B4353604FF0807393FA7A
:100AA400A3F3B3FA83F303F1845303F584139B0094
:100AB40001221A60FFF7BAFC04464FF0007393FA60
:100AC400A3F3224B19684FF0007393FAA3F3B3FA1C
:100AD40083F303F01F03012202FA03F3194206D140
:100AE400FFF7A4FC001B0228E7D9032024E0002020
:100AF40022E0002020E0012B20D0144A5368D06A61
:100B040003F4C031E26991421AD103F47013226AEA
:100B1400934217D100F00F00636A984214D1002069
:100B24000AE001207047012006E0012004E00320D0
:100B340002E0032000E0002002B070BD0120FBE7CA
:100B44000120F9E70120F7E70120F5E70010024052
:100B5400174B5B6803F00C02082A01D01548704754
:100B640003F470114FF4701292FAA2F2B2FA82F204
:100B740021FA02F21049885C0D4AD26A02F00F028F
:100B84000F2191FAA1F1B1FA81F1CA400B498A5CB3
:100B940013F4803F05D0074BB3FBF2F303FB00F0E3
:100BA4007047044BB3FBF2F303FB00F0704700BF44
:100BB4000010024000127A00B00E0008A00E0008D7
:100BC400002800F0BE8070B50D460446614B1B68DA
:100BD40003F007038B420BD25E4A136823F007032A
:100BE4000B431360136803F007038B4240F0AB80A0
:100BF400236813F0020F06D0574A536823F0F0031A
:100C0400A1680B435360236813F0010F5AD0636843
:100C1400012B2DD0022B40D0022292FAA2F24E4A8E
:100C24001068022292FAA2F2B2FA82F202F01F02D1
:100C3400012101FA02F2104200F0878046494A6815
:100C440022F0030213434B60FFF7F0FB0646424BCE
:100C54005B6803F00C036268B3EB820F32D0FFF7DA
:100C6400E5FB801B41F288339842F0D9032067E00A
:100C74004FF4003292FAA2F2374A10684FF400326D
:100C840092FAA2F2B2FA82F202F01F02012101FAF0
:100C940002F20242D2D1012052E04FF0007292FAE5
:100CA400A2F22D4A10684FF0007292FAA2F2B2FA40
:100CB40082F202F01F02012101FA02F21042BDD1B8
:100CC40001203DE0234B1B6803F00703AB420AD924
:100CD400204A136823F007032B431360136803F0BF
:100CE4000703AB4233D1236813F0040F06D01A4A2A
:100CF400536823F4E063E1680B435360236813F003
:100D0400080F07D0144A536823F46053216943EA57
:100D1400C1035360FFF71CFF0F4B5B6803F0F00344
:100D2400F02292FAA2F2B2FA82F2D3400B4AD35CD6
:100D3400D8400B4B18600B4B1868FFF733FB0020AF
:100D440070BD012070470120FAE70120F8E7012077
:100D5400F6E700BF0020024000100240C00E000869
:100D6400380400203404002072B6FEE700B591B0C8
:100D74002822002106A8FFF78FFA0023019302938B
:100D840003930493059302230693012309931023E9
:100D94000A9306A8FFF7BAFB68B90F230193002151
:100DA400029103910491059101A8FFF709FF20B96D
:100DB40011B05DF804FBFFF7D7FFFFF7D5FF08B5C7
:100DC400FFF716FBFFF7D2FFFEE7000082B00A4BE5
:100DD4009A6942F001029A619A6902F00102009252
:100DE400009ADA6942F08052DA61DB6903F08053D9
:100DF4000193019B02B0704700100240FEE7FEE73A
:100E0400FEE7FEE7FEE770477047704708B5FFF757
:100E140001FB08BD70470000DFF834D0FFF7FAFF8C
:100E24000C480D490D4A002302E0D458C450043341
:100E3400C4188C42F9D30A4A0A4C002301E0136017
:100E44000432A242FBD3FFF703FAFFF7B8FFFEE731
:100E540000000120000000203C040020DC0E0008FB
:100E64003C0400205C040020FEE70000024B13B1A8
:100E74000248FFF7D1B970470000000029020008BA
:100E8400F8B500BFF8BC08BC9E467047F8B500BF73
:080E9400F8BC08BC9E46704743
:100E9C00080000200102030405060708090A0B0CD0
:100EAC000D0E0F1002030405060708090A0B0C0DA2
:100EBC000E0F1010000000000000000001020304DF
:040ECC000607080904
:080ED000710E0008FD0100088D
:040ED800D501000838
:100EDC00080000200000000000000000F4020020C8
:100EEC005C030020C4030020000000000000000090
:100EFC0000000000000000000000000000000000E6
:100F0C0000000000000000000000000000000000D5
:100F1C0000000000000000000000000000000000C5
:100F2C0000000000000000000000000000000000B5
:100F3C0000000000000000000000000000000000A5
:100F4C000000000000000000000000000000000095
:100F5C000000000000000000000000000000000085
:100F6C000000000000000000000000000000000075
:100F7C000000000000000000000000000000000065
:100F8C0001000000000000000E33CDAB34126DE602
:100F9C00ECDE05000B00000000000000000000006B
:100FAC000000000000000000000000000000000035
:100FBC000000000000000000000000000000000025
:100FCC000000000000000000000000000000000015
:100FDC000000000000000000000000000000000005
:0C130C00010000001000000000127A0038
:0400000508000E1DC4
:00000001FF
